:02000000B42822
:10000800FF00030E8301B1000A08B0008A0104084A
:10001800A0000B1D25280B11163081000030220688
:10002800031D18280B302106031D1C28A101A2015D
:100038002108233E84000008B6007420A10A031991
:10004800A20A2008840030088A00310E8300FF0EBF
:040058007F0E09000E
:10005C0083120313FB01FA01F9018030F800F10C53
:10006C00F00C031C42287408F90775080318750F67
:10007C00FA070318FB0A0310F01F4A287408FA0742
:10008C0075080318750FFB07FB0CFA0CF90CF80C30
:10009C00031C35287B08F3007A08F2007908F1007C
:0600AC007808F0000800D6
:0E00B200831203132F088A002E088200080014
:1000C00059208A110A128000840AAE0A0319AF0A65
:0800D000F003031D6028080085
:1000D800831603130711831212150C3097040800B6
:1000E800831603131208013EF000F1010318F10A08
:1000F80083123608F400F5012E200630F20070084D
:10010800F4007108F500720803198F28F50CF40C37
:10011800F513FF3E88280430F1007408F0007108D8
:1001280003199A28F00D7010FF3E9428303070059E
:10013800F3007408F0007508F100F10CF00CF113ED
:10014800F10CF00CF113700895000F309705730847
:040158009704080000
:0C015C008312031395011712971208007C
:1001680083120313A101A2017F30A300C430A400AD
:10017800F330A500FE30A600E030A700A330A800A9
:100188005B30A9001F30AA000130AB000B30AC0077
:100198003A30AD0083168701831287018B170B173E
:1001A8008B160B1183168112811101158114011010
:1001B8001630831281001214921063308316920055
:0601C800AE206C20E628C9
:02400E004A2F37
:00000001FF
