:020000003B289B
:10000800FF00030E8301A4000A08A5008A010B1D46
:1000180021280B119C30810000302106031D162871
:1000280001302006031D1C280614A001A101212867
:1000380006100130A0000030A10025088A00240E17
:080048008300FF0E7F0E09008A
:0E0050008312031323088A002208820008008E
:10005E0028208A110A128000840AA20A0319A30A10
:08006E00F003031D2F28080018
:1000760083120313A001A101831686018312860150
:100086008B170B178B160B11831681128111011119
:0C009600811001149C308312810050285E
:02400E004A2F37
:00000001FF
