:020000003D2899
:10000800FF00030E8301A4000A08A5008A010C1C46
:1000180023280C10D4308E00FE308F0000302106CB
:10002800031D182801302006031D1E280614A001F0
:10003800A101232806100130A0000030A1002508E6
:0C0048008A00240E8300FF0E7F0E0900CA
:0E0054008312031323088A002208820008008A
:100062002A208A110A128000840AA20A0319A30A0A
:08007200F003031D3128080012
:10007A0083120313A001A10183168601831286014C
:10008A008B170B17101490109011901210168316DC
:10009A000C1483120C10D4308E00FE308F005428BA
:02400E004A2F37
:00000001FF
